:020000040800F2
:10000000B006002061020008BD140008B505000814
:10001000B9140008590400088918000800000000FD
:100020000000000000000000000000008916000829
:1000300061050008000000002D1500088D1600085D
:100040007B0200087B0200087B0200087B0200089C
:100050007B0200087B0200087B0200087B0200088C
:100060007B0200087B0200087B0200087B0200087C
:100070007B0200087B0200087B0200087B0200086C
:100080007B0200087B0200087B02000800000000E1
:100090000000000000000000000000007B020008DB
:1000A0007B0200087B0200087B0200087B0200083C
:1000B0007B0200087B0200087B0200087B0200082C
:1000C0007B0200087B0200087B0200087B0200081C
:1000D0007B0200087B020008A51600080000000053
:1000E0007B0200087B0200087B0200080000000081
:1000F0000000000000000000000000007B0200087B
:10010000000000007B0200087B0200087B02000860
:1001100000000000000000000000000000000000DF
:100120007B0200087B0200087B0200087B020008BB
:100130007B0200080000000000000000000000003A
:100140000000000000000000000000007B0200082A
:100150007B0200087B0200087B0200087B0200088B
:100160007B0200087B020008000000000000000085
:10017000000000000000000000000000000000007F
:10018000000000007B0200080000000000000000EA
:100190007B02000800F002F800F052F814A696E87E
:1001A000000CB244B344DA4501D100F049F8BAE892
:1001B0000F000FA696E83000A5EB040504EB060738
:1001C000AAEB0704A7F101074FEA15154FEA34140B
:1001D000A4F10104AC4201D300F032F813F0010F96
:1001E00018BFFB1A43F0010300F001F8DBE71847E2
:1001F0004018000060180000103A24BF78C878C189
:10020000FAD8520724BF30C830C144BF04680C601C
:1002100070470000704700000023002400250026DE
:10022000103A28BF78C1FBD8520728BF30C148BF59
:100230000B6070471FB501F0D6FB1FBD10B510BD98
:1002400000F0D0F81146FFF7F5FF01F0A1FB00F038
:10025000EEF803B4FFF7F2FF03BC00F0F5F800007E
:100260000948804709480047FEE7FEE7FEE7FEE74A
:10027000FEE7FEE7FEE7FEE7FEE7FEE70448054986
:10028000054A064B704700009116000895010008CA
:10029000B0000020B0060020B0020020B002002014
:1002A00053EA020C00F069802DE9F04B4FF0000694
:1002B000002B1FBFB3FA83F503FA05F424FA05F601
:1002C0005E4012BF1643B2FA82F502FA05F4C5F198
:1002D00020051EBF22FA05FC44EA0C04203556EA2C
:1002E000044C4FEA144418BF641C4FF000084FF050
:1002F0000009904271EB030C39D3002919BFB1FA00
:1003000081F701FA07F6B0FA80F700FA07F6C7F1AD
:1003100020071EBF20FA07FC46EA0C062037B6FB72
:10032000F4FCA7EB0507103F07F01F0BCBF12006ED
:100330002CFA06F60CFA0BFB44BFB3460026202F1E
:10034000A4BF5E464FF0000B5BEA060C08BF4FF0FF
:10035000010B19EB0B0948EB0608ABFB027C06FB13
:1003600002CC0BFB03CCC01B71EB0C01C1E70B46AD
:10037000024641464846BDE8F08B13B5084318BF16
:100380004FF0FF300146AFF30080BDE81C407047DE
:100390004FF0000200B5134694469646203922BF1E
:1003A000A0E80C50A0E80C50B1F12001BFF4F7AF69
:1003B000090728BFA0E80C5048BF0CC05DF804EB4B
:1003C000890028BF40F8042B08BF704748BF20F8B9
:1003D000022B11F0804F18BF00F8012B70477047B7
:1003E00070477047754600F02BF8AE460500694629
:1003F000534620F00700854618B020B5FFF73EFFB2
:10040000BDE820404FF000064FF000074FF0000815
:100410004FF0000BAC46ACE8C009ACE8C009ACE852
:10042000C009ACE8C00921F007018D46704710B53E
:100430000446AFF300802046BDE81040FFF709BF37
:10044000004870471000002001491820ABBEFEE7AD
:100450002600020070470000FFE7FEE780B592B07B
:100460004FF4001000F0BAF846F20000C4F20200A7
:1004700001900521029100F055FB03A800903C215A
:10048000FFF786FF009A019802994FF000630C93E2
:100490000023059340F2700CC2F2000CCDF810C09E
:1004A0000A934FF4007CCDF820C04FF4807CCDF847
:1004B00018C04FF0400CCDF82CC044F2044CC4F2EC
:1004C000000CCDF80CC0099307934FF400330D9343
:1004D00000F068FB44F20040C4F2000000F0B4FEFB
:1004E0000198029900F03EFB12B080BD80B592B039
:1004F0004FF4001000F072F846F20000C4F202005F
:1005000000900621019100F007F90199009800F090
:1005100009FB03A802903C21FFF73AFF00980199DC
:10052000029A4FF000630C934023059300230A9333
:100530004FF4806CCDF820C0069344F2044CC4F212
:10054000000CCDF80CC0099307930D9300F02AFB23
:1005500044F20040C4F2000000F08CFE12B080BDF6
:100560007047000080B58AB00120019000F024F8A7
:1005700000210991089107910691059104910220AB
:100580000590079104220492089106900720099093
:100590000020C4F20200039004A9029100F008FCBC
:1005A000019A0299039808230493089200F000FC32
:1005B0000AB080BDFFE7FEE782B00190019A43F6E2
:1005C0003000C4F202000168114301600068019923
:1005D00008400090009802B07047000082B001907F
:1005E000019A43F63000C4F2020001681143016031
:1005F0000068019908400090009802B07047000020
:1006000081B00090009A43F61001C4F2020108681C
:100610001043086001B0704781B00090009A43F623
:100620001001C4F2020108689043086001B07047ED
:1006300082B00190019A43F64000C4F202000168C2
:10064000114301600068019908400090009802B0D1
:100650007047000082B00190019A43F64000C4F256
:100660000200016811430160006801990840009090
:10067000009802B07047000082B00190019A43F6E2
:100680004400C4F20200016811430160006801994E
:1006900008400090009802B07047000081B00090C0
:1006A00000994FF40010C86001B0704784B0039007
:1006B0000291019200930398029941F62022C0F61C
:1006C0000002515C0844406920F007000199009B3A
:1006D000194308430399029BD25C1144486104B05A
:1006E0007047000083B00290019100920298019936
:1006F00041F62022C0F60002515C405848F21F012A
:10070000CFF6FC710840009908430299019BD25C26
:10071000885003B07047000080B596B015901491D2
:1007200046F21000C4F20200139000208DF84B0036
:10073000149810F5803F28D1FFE7159846F2000184
:10074000C4F20201884209D1FFE74FF40010119072
:10075000FFF756FF1198FFF75FFF15E0159846F277
:100760000041C4F20201884209D1FFE74FF4800042
:100770001090FFF745FF1098FFF74EFF03E00120B0
:100780008DF84B00FFE7FFE7A8E11598149900F0FA
:10079000B9F9159846F20001C4F20201884209D164
:1007A000FFE7149830B9FFE746F21000C4F20200E8
:1007B0000F902EE1159846F20041C4F202018842E2
:1007C00009D1FFE7149830B9FFE746F21040C4F2B0
:1007D00002000E901AE1159846F20001C4F20201DF
:1007E00088420AD1FFE71498012806D1FFE746F2B4
:1007F0002800C4F202000D9005E1159846F2004170
:10080000C4F2020188420AD1FFE71498012806D1F8
:10081000FFE746F22840C4F202000C90F0E0159881
:1008200046F20001C4F2020188420AD1FFE714989F
:10083000022806D1FFE746F24000C4F202000B9006
:10084000DBE0159846F20041C4F2020188420AD169
:10085000FFE71498022806D1FFE746F24040C4F2B1
:1008600002000A90C6E0159846F20001C4F20201A7
:1008700088420AD1FFE71498032806D1FFE746F221
:100880005800C4F202000990B1E0159846F2004108
:10089000C4F2020188420AD1FFE71498032806D166
:1008A000FFE746F25840C4F2020008909CE0159819
:1008B00046F20001C4F2020188420AD1FFE714980F
:1008C000042806D1FFE746F27000C4F20200079048
:1008D00087E0159846F20041C4F2020188420AD12D
:1008E000FFE71498042806D1FFE746F27040C4F2EF
:1008F0000200069072E0159846F20001C4F202016F
:1009000088420AD1FFE71498052806D1FFE746F28E
:100910008800C4F2020005905DE0159846F200419F
:10092000C4F2020188420AD1FFE71498052806D1D3
:10093000FFE746F28840C4F20200049048E01598B0
:1009400046F20001C4F2020188420AD1FFE714987E
:10095000062806D1FFE746F2A000C4F20200039089
:1009600033E0159846F20041C4F2020188420AD1F0
:10097000FFE71498062806D1FFE746F2A040C4F22C
:10098000020002901EE01599002046F20002C4F217
:1009900002029142019007D1FFE714980738B0FA9C
:1009A00080F040090190FFE70198C10746F2B84086
:1009B000C4F2020000291CBF46F2B800C4F20200D3
:1009C0000290FFE702980390FFE703980490FFE787
:1009D00004980590FFE705980690FFE706980790B2
:1009E000FFE707980890FFE708980990FFE7099844
:1009F0000A90FFE70A980B90FFE70B980C90FFE72F
:100A00000C980D90FFE70D980E90FFE70E980F9051
:100A1000FFE70F981390139800220260139842602A
:100A2000139882601398C260139802611399212071
:100A300048611598149900F015F9149820B9FFE74A
:100A400015993F20886048E01498012805D1FFE7F8
:100A500015994FF4746088603EE01498022805D11F
:100A6000FFE715994FF47C10886034E01498032850
:100A700005D1FFE715994FF0746088602AE014985B
:100A8000042804D1FFE715993F20C86021E014989D
:100A9000052805D1FFE715994FF47460C86017E089
:100AA0001498062805D1FFE715994FF47C10C8600B
:100AB0000DE01498072805D1FFE715994FF07460F1
:100AC000C86003E001208DF84B00FFE7FFE7FFE778
:100AD000FFE7FFE7FFE7FFE7FFE7FFE79DF84B00D2
:100AE00016B080BD82B0019000910199009A41F644
:100AF0001820C0F60000825C885820F00100885061
:100B000002B0704782B0019000910199009A41F6BD
:100B10002020C0F60000825C885820F00100885038
:100B200002B0704782B0019000910199009A41F69D
:100B30002820C0F60000825C885820F00100885010
:100B400002B0704782B0019000910199009A41F67D
:100B50001820C0F60000825C885840F001008850E0
:100B600002B0704782B0019000910199009A41F65D
:100B70002820C0F60000825C885840F001008850B0
:100B800002B0704782B0019000910198009A41F63E
:100B90001821C0F60001895C0844406880B202B0A8
:100BA0007047000010B584B0039002910192019843
:100BB000C06A08B1FFE7FFE703980299019B9A68B2
:100BC000DC68D3F810E0D3F814C0224342EA0E02E6
:100BD00042EA0C02D3F818C042EA0C02D3F81CC057
:100BE00042EA0C029B6A1A43FFF77CFD0198C06A37
:100BF000A0B1FFE703980299019BDA6A1B6BFFF72C
:100C000055FD03980299019A526B00F095F80398EC
:100C10000299019A926B00F0B5F8FFE703980299E8
:100C2000019A526800F078F803980299019A1268C4
:100C300000F098F803980299019A126A00F042F8BD
:100C400003980299019A526A00F00CF8002004B04F
:100C500010BD000081B0009000984068C0F3405083
:100C600001B0704783B002900191009202980199FF
:100C700041F62022C0F60002515C405820F060602E
:100C8000009908430299019BD25C885003B07047D9
:100C900083B00290019100920298019941F61822C6
:100CA000C0F60002515C084440684FF6FF7188436B
:100CB000009908430299019BD25C1144486003B03B
:100CC0007047000083B00290019100920298019950
:100CD00041F62022C0F60002515C084440684FF6FD
:100CE000FF718843009908430299019BD25C11442B
:100CF000486003B07047000083B0029001910092F9
:100D000000980299019B41F61822C0F60002D25CBD
:100D10001144C86003B0704783B002900191009203
:100D200000980299019B41F62022C0F60002D25C95
:100D30001144C86003B0704783B0029001910092E3
:100D40000298019941F62022C0F60002515C4058F9
:100D500020F0C070009908430299019BD25C885032
:100D600003B0704783B002900191009200980299FD
:100D7000019B41F62022C0F60002D25C114488603B
:100D800003B0704783B002900191009202980199DC
:100D900041F62022C0F60002515C405820F4C00009
:100DA000009908430299019BD25C885003B07047B8
:100DB00080B588B0039002910020019000900298C5
:100DC000006890FAA0F00690069820B9FFE720206E
:100DD0008DF81F0005E00698B0FA80F08DF81F002E
:100DE000FFE79DF81F000190FFE702980068019956
:100DF000C84000285DD0FFE702980068019A0121F1
:100E0000914008400090009800284ED0FFE70298DB
:100E10004068012805D0FFE70298406802280DD1FC
:100E2000FFE703980099029A926800F04FF903983F
:100E30000099029AD26800F0FBF8FFE70398009946
:100E4000029A126900F004F902984068022825D13C
:100E5000FFE7009890FAA0F00490049820B9FFE70B
:100E600020208DF8170005E00498B0FA80F08DF886
:100E70001700FFE79DF81700072807D8FFE703983A
:100E80000099029A526900F017F806E00398009959
:100E9000029A526900F04EF8FFE7FFE703980099C5
:100EA000029A526800F086F8FFE70198013001903D
:100EB0009BE7002008B080BD8AB0059004910392A2
:100EC0000598006A0290049890FAA0F0089008989B
:100ED00020B9FFE720208DF8270005E00898B0FA38
:100EE00080F08DF82700FFE702989DF827108A0010
:100EF0000F2191408843009003980190049890FA44
:100F0000A0F00690069820B9FFE720208DF81F007A
:100F100005E00698B0FA80F08DF81F00FFE7009812
:100F200001999DF81F20920091400843059908629D
:100F30000AB070478AB00590049103920598406A00
:100F400002900498000A90FAA0F00890089820B93E
:100F5000FFE720208DF8270005E00898B0FA80F020
:100F60008DF82700FFE702989DF827108A000F21CF
:100F7000914088430090039801900498000A90FAE9
:100F8000A0F00690069820B9FFE720208DF81F00FA
:100F900005E00698B0FA80F08DF81F00FFE7009892
:100FA00001999DF81F2092009140084305994862DD
:100FB0000AB070478AB005900491039205980068C2
:100FC0000290049890FAA0F00890089820B9FFE7E2
:100FD00020208DF8270005E00898B0FA80F08DF801
:100FE0002700FFE702989DF827104A00032191404F
:100FF0008843009003980190049890FAA0F006901E
:10100000069820B9FFE720208DF81F0005E006981C
:10101000B0FA80F08DF81F00FFE7009801999DF865
:101020001F20520091400843059908600AB070479C
:1010300083B0029001910092029840680199884320
:10104000009A514308430299486003B0704700007A
:101050008AB00590049103920598C06802900498A4
:1010600090FAA0F00890089820B9FFE720208DF8AA
:10107000270005E00898B0FA80F08DF82700FFE718
:1010800002989DF827104A00032191408843009060
:1010900003980190049890FAA0F00690069820B961
:1010A000FFE720208DF81F0005E00698B0FA80F0D9
:1010B0008DF81F00FFE7009801999DF81F2052004E
:1010C000914008430599C8600AB070478AB00590FE
:1010D00004910392059880680290049890FAA0F019
:1010E0000890089820B9FFE720208DF8270005E038
:1010F0000898B0FA80F08DF82700FFE702989DF875
:1011000027104A00032191408843009003980190E2
:10111000049890FAA0F00690069820B9FFE72020E6
:101120008DF81F0005E00698B0FA80F08DF81F00DA
:10113000FFE7009801999DF81F2052009140084355
:10114000059988600AB0704743F60800C4F20200AF
:10115000006800F0F000704743F60800C4F2020097
:10116000006800F4E050704743F60800C4F2020043
:10117000006800F46040704743F60800C4F20200C3
:10118000006800F00C00704780B582B0019000F05C
:1011900007FA019908600198006800F0C9F90199FF
:1011A00048600198406800F0D7F90199886001987B
:1011B000406800F0E3F90199C86002B080BD00000A
:1011C00043F60400C4F20200006800F03F007047DC
:1011D00043F60400C4F20200006800F48000704787
:1011E00043F60400C4F202000068C0F388107047A0
:1011F00043F60400C4F20200006800F44030704777
:1012000082B00190019800680090009801984068B1
:101210000090009802B0704781B000900099086972
:1012200020F4904008610099486920F02A00486144
:1012300001B0704781B000900099C86840F4005038
:10124000C86001B07047000082B00190FFE7FFE77F
:10125000019850E8050F40F040000090FFE700992A
:10126000019A42E805100028F2D1FFE7FFE702B03B
:101270007047000082B00190FFE7FFE7019850E857
:10128000050F40F080000090FFE70099019A42E8C6
:1012900005100028F2D1FFE7FFE702B07047000019
:1012A00082B00190FFE7FFE7019850E8030F40F09C
:1012B00010000090FFE70099019A42E8031000280F
:1012C000F2D1FFE7FFE702B07047000080B588B0B9
:1012D0000790069101208DF81700002004900798D0
:1012E00000F06EF8002856D1FFE70798C06849F271
:1012F0000C618843069A5168D2F80CC01369926950
:1013000041EA0C011943114308430799C860079843
:101310000699896800F0C2F807980699496900F0B3
:10132000AFF86846FFF730FF079841F20001C4F2BA
:101330000101884203D1FFE70398049018E0079861
:1013400044F20041C4F20001884203D1FFE7029851
:1013500004900CE0079841F20041C4F20101884278
:1013600003D1FFE70398049000E0FFE7FFE7FFE702
:10137000049878B1FFE70698006858B1FFE70020AD
:101380008DF8170007980499069A1368926900F07F
:101390001FF8FFE7FFE79DF8170008B080BD0000C9
:1013A00081B0009000980068C0F3001001B0704751
:1013B00081B0009000980068C0F3801001B07047C1
:1013C00081B000900098C068C0F3403001B0704711
:1013D00080B584B003900291019200930198B0F51A
:1013E000004F26D1FFE702981921A0FB0101009BC5
:1013F0005A00DB0FFEF754FF844648F21F52C5F235
:10140000EB12ACFB021041090801642301FB13C37A
:10141000322101EBC301A1FB0221F82202EA5112A1
:1014200000EB4200C1F34211084480B20399886086
:1014300024E002981921A0FB0101009B9A009B0F58
:10144000FEF72EFF034648F21F51C5F2EB11A3FB36
:1014500001204209642002FB1033322000EB03100C
:10146000A0FB0101F02000EA511000EB0210C1F3D3
:101470004311084480B203998860FFE704B080BD3F
:1014800082B0019000910198406920F44070009969
:1014900008430199486102B07047000082B0019092
:1014A00000910198006920F4405000990843019987
:1014B000086102B070470000FFE7FEE7FFE7FEE7C4
:1014C00088B0079006910592079800F007000490F5
:1014D0000498C0F10700052803D3FFE7042001901A
:1014E00004E00498C0F107000190FFE70198039021
:1014F00004980430062803D8FFE70020009003E09A
:10150000049803380090FFE700980290069803992A
:10151000012202FA01F101390840029B9840059925
:101520009A40013A1140084308B0704770470000E4
:1015300080B582B0019001980090FFF705FE01464A
:101540000098C9B20A0941F60021C0F60001895C81
:10155000C84002B080BD000080B582B00190019803
:101560000090FFF7F9FD014600988A0A41F6102124
:10157000C0F60001895CC84002B080BD80B582B071
:10158000019001980090FFF7EFFD014600984A0B8B
:1015900041F61021C0F60001895CC84002B080BD50
:1015A00080B582B000200190FFF7E6FD0146009172
:1015B00040B1FFE7009804280AD0FFE70098082808
:1015C0000CD010E042F20040C0F2F400019010E0B4
:1015D00047F64000C0F27D1001900AE0082000F0BC
:1015E0000BF8019005E042F20040C0F2F4000190D7
:1015F000FFE7019802B080BD80B588B00790002059
:10160000069005900490FFF7E3FD05900598039080
:1016100028B1FFE70398B0F5800F06D00BE042F247
:101620000040C0F2F40006900BE047F64000C0F224
:101630007D10069005E042F20040C0F2F4000690F2
:10164000FFE7079808281BD1FFE706980090FFF7EF
:10165000B7FD01460098B0FBF1F00190FFF7C0FD27
:101660000146019848430290FFF7C2FD01460298E7
:101670000A0C022101EB4201B0FBF1F00490FFE7FC
:10168000049808B080BD000070470000704700005B
:101690004EF68851CEF20001086840F470000860F0
:1016A0007047000080B58AB044F20040C4F20000E8
:1016B000FFF776FE002800F0B080FFE744F200401C
:1016C000C4F20000FFF79CFD46F20000C4F20200E5
:1016D000089005210791FFF755FA079902460898E7
:1016E000C2F140028DF82720FFF7FCF99DF8270092
:1016F00040F27001C2F20001084410F8010C8DF8AC
:1017000026009DF8260030283CD1FFE746F2000075
:10171000C4F20200059006210691FFF7E3F905984F
:10172000069940F20002C2F20002FFF7E5FA0598BE
:1017300006990522FFF7ACFA05980699FFF702FA19
:10174000FFE746F20000C4F20200FFF783FA08B98F
:10175000FFE7F6E746F20000C4F20200FEF79EFF44
:10176000FFE744F20040C4F20000FFF721FE08B991
:10177000FFE7F6E746F20000C4F202000621FFF799
:10178000B1F93BE046F20000C4F2020003900621EA
:101790000491FFF7A7F90398049940F20602C2F2F8
:1017A0000002FFF7A9FA039804990722FFF770FADD
:1017B00003980499FFF7C6F9FFE746F20000C4F268
:1017C0000200FFF747FA08B9FFE7F6E746F2000024
:1017D000C4F20200FEF762FFFFE744F20040C4F2E9
:1017E0000000FFF7E5FD08B9FFE7F6E746F2000065
:1017F000C4F202000621FFF775F9FFE746F2000088
:10180000C4F202000190052102914022FFF740FA44
:1018100001980299FFF796F9FFE70AB080BD000032
:1018200080B58AB04FF40030FEF714FF002001901D
:1018300009900890079006900590049003904FF44B
:1018400016510391049008900990069005900C2081
:10185000079044F20040C4F20000009003A9FFF793
:1018600035FD0098FFF7D8FC0098FFF7E3FC0098DF
:10187000FFF716FD01992620029000F049F8029822
:1018800000F004F80AB080BDFFE7FEE781B08DF8F4
:1018900003009DF9030000280ED4FFE79DF9031013
:1018A00001F01F02012090404A094EF20011CEF2D1
:1018B000000141F82200FFE701B070474EF60C50DE
:1018C000CEF200000068C0F30220704782B08DF8AD
:1018D000070000919DF9070000280AD4FFE700984F
:1018E00000019DF907104EF20042CEF2000288542A
:1018F0000BE0009800019DF8071001F00F014EF673
:101900001452CEF200028854FFE702B07047000084
:1019100082B08DF8070000919DF9070000280AD4D5
:10192000FFE7009800019DF907104EF20042CEF249
:10193000000288540BE0009800019DF8071001F0A8
:101940000F014EF61452CEF200028854FFE702B0A7
:101950007047000083B00290029800F007000090EA
:101960004EF60C51CEF200010868019001984FF636
:10197000FF02104001900198009A40EA02200022E4
:10198000C0F2FA52104301900198086003B070470A
:1019900080B582B00020009001904FF48040FEF7A7
:1019A0006BFE4FF08050FEF743FE0320FFF7D2FF9F
:1019B000FFF784FF009A0F21FFF782FD01464FF0E9
:1019C000FF30FFF783FFFEF7CDFDFFF729FFFEF79E
:1019D0008DFDFEF743FD40F27001C2F2000163206D
:1019E0000870FFE7FEE7F1EE100A4FF6FF71C0F254
:1019F000C03120EA010040F04070E1EE100A70476B
:101A000000000000000000000102030406070809AE
:101A10000000000001020304102840587088A0B89C
:101A2000102840587088A0B8102840587088A0B876
:101A3000501A00080000002010000000F801000803
:101A4000601A000810000020A0060000180200081C
:101A50004279650D0A0048656C6C6F0D0A00000044
:040000050800019559
:00000001FF
