:020000040800F2
:10000000B80600200D03000811250008D1160008CD
:100010000D250008C9150008892D00080000000002
:10002000000000000000000000000000752B000828
:10003000CD1500080000000081250008792B00087C
:1000400027030008270300082703000827030008E8
:1000500027030008270300082703000827030008D8
:1000600027030008270300082703000827030008C8
:1000700027030008270300082703000827030008B8
:1000800027030008270300082703000800000000DA
:10009000000000000000000000000000270300082E
:1000A0002703000827030008270300082703000888
:1000B0002703000827030008270300082703000878
:1000C0002703000827030008270300082703000868
:1000D00027030008270300080D2C0008000000007B
:1000E000270300082703000827030008000000007A
:1000F00000000000000000000000000027030008CE
:100100000000000027030008270300082703000859
:1001100000000000000000000000000000000000DF
:100120002703000827030008270300082703000807
:10013000270300080000000000000000000000008D
:10014000000000000000000000000000270300087D
:1001500027030008270300082703000827030008D7
:10016000270300082703000800000000000000002B
:10017000000000000000000000000000000000007F
:10018000000000002703000800000000000000003D
:100190002703000800F002F800F0A8F814A696E87B
:1001A000000CB244B344DA4501D100F09FF8BAE83C
:1001B0000F000FA696E83000A5EB040504EB060738
:1001C000AAEB0704A7F101074FEA15154FEA34140B
:1001D000A4F10104AC4201D300F088F813F0010F40
:1001E00018BFFB1A43F0010300F001F8DBE71847E2
:1001F0007439000094390000103A24BF78C878C1DF
:10020000FAD8520724BF30C830C144BF04680C601C
:1002100070470000704700000023002400250026DE
:10022000103A28BF78C1FBD8520728BF30C148BF59
:100230000B6070476E2900F06781702900F0A98279
:10024000662903F0E782652903F0E482672903F059
:10025000E182612903F0E08203681B0A28BF41F0B4
:100260008001692900F01481642900F01181752949
:1002700000F00E816F2900F03782782900F0758236
:10028000E92900F0D181E42900F0CE81F52900F0C0
:10029000CB81EF2900F03482F82900F074820368E2
:1002A000DB0928BF41F08001632900F075877329BD
:1002B00000F07A87E32900F08587F32900F08A8728
:1002C000002070471FB503F098FA00F0D9FF040032
:1002D0000020002103F004FA401C6060002000218F
:1002E00003F0E8F9E0601FBD10B510BD00F09AFF03
:1002F0001146FFF7E7FF02F091FD01F077F803B434
:10030000FFF7F2FF03BC01F0BDF800000948804789
:1003100009480047FEE7FEE7FEE7FEE7FEE7FEE7E7
:10032000FEE7FEE7FEE7FEE704480549054A064BFF
:1003300070470000F92B000895010008B800002064
:10034000B8060020B8020020B80200200FB41CB587
:10035000084B06AA7B4469460090059800F0EDF82A
:1003600004460020694600F0FBF820461CBC5DF8FE
:1003700014FB0000090200004FF0000200B5134614
:1003800094469646203922BFA0E80C50A0E80C50B5
:10039000B1F12001BFF4F7AF090728BFA0E80C5066
:1003A00048BF0CC05DF804EB890028BF40F8042B5F
:1003B00008BF704748BF20F8022B11F0804F18BFCC
:1003C00000F8012B704770477047704770B50446BE
:1003D00085690068C10601D5302600E02026C007E7
:1003E00007D070BDD4E9012130469047206A401CF7
:1003F00020626D1EF6D570BD70B504468569007823
:10040000C00707D170BDD4E9012120209047206AA0
:10041000401C20626D1EF6D570BD09684A0501D5E5
:1004200040B27047C905FCD500B2704709684A055B
:1004300001D5C0B27047C905FCD580B2704770B510
:100440000C460546012A05D02878800600D5EA69C1
:10045000002302E0012305E05B1C934202D2E05C32
:100460000028F9D1A869E618C01AA861286A1844BA
:1004700028622846FFF7AAFF04E0D5E9012114F815
:10048000010B9047B442F8D32846FFF7B5FF70BD83
:100490002DE9F0410646002410687529314616A55D
:1004A00010D0FFF7BAFF002802DA404213A507E098
:1004B00031688A0701D512A502E0490704D511A5C4
:1004C000012401E0FFF7B2FF00210A2206F1240710
:1004D00009E0B0FBF2FCB0FBF2F302FB1C00303091
:1004E00078541846491C0028F3D123462A46304642
:1004F000BDE8F04100F061BA000000002D000000EE
:100500002B0000002000000011680268006A5305FB
:1005100001D508700AE0D30501D5088006E013066E
:1005200003D5C217C1E9000200E00860012070474E
:1005300001694A1C02610878704700B58FB0CDE9A7
:1005400001310021059105497944CDE90310114697
:10055000684600F029F90FB000BD0000E5FFFFFF7D
:100560000A6802F8010B0A60704700002DE9FF5F7E
:1005700015468A460446DFF8AC80F8440027D8E9DF
:1005800000103E46CDE9001010E03AF816106A4619
:1005900002A800F023FE411C07D02178890603D56C
:1005A000E269391891420DD80744761C20788006FC
:1005B00002D5E069B84205DDAE42E6DB3AF8160046
:1005C0000028E2D1A069C01BA0612046FFF7FEFE13
:1005D000D8E90010CDE90010002017E03AF8181013
:1005E0006A4602A800F0FAFDB0F1FF3F81460BD049
:1005F00000250DF1080B05E0D4E901211BF80500E9
:1006000090476D1C4D45F7D308F10100B04280467C
:10061000E4DB206A384420622046FFF7EDFEBDE8A7
:10062000FF9F00009E3200002DE9F0418046D21D60
:1006300022F007020025D2E90002F52915A614D000
:10064000011E72F1000106DA0023D0EB030063EB18
:10065000020211A608E0D8F800108B0701D50FA6FA
:1006600002E0490701D50EA601251146002408F134
:10067000240704E000F05CF930323A55641C50EA7B
:100680000102F7D12B46324621464046BDE8F041F3
:1006900000F093B9000000002D0000002B000000C6
:1006A0002000000030B4002100F1240408E002F032
:1006B0000705D208303542EA4372DB086554491C0D
:1006C00052EA0305F3D10468002310A2250708D5D8
:1006D00004F020040C4304D0C46901230CA2641E5E
:1006E000C46130BC00F069B910B5044621461068F9
:1006F000FFF79CFE02462046BDE810400023D1E7EC
:10070000D21D22F00701D1E90023CBE70000000051
:1007100030000000F0B40D460188090502D5214CD7
:100720007C4402E01F4C7C440E34002100F124067E
:1007300008E002F00F071209E75D42EA03721B09A5
:100740007754491C52EA0307F3D1027800231207B9
:1007500004D5702D06D009B1022311342246F0BC15
:1007600000F02BB901231034F8E770B504460D46AC
:1007700021461068FFF75AFE024629462046BDE88A
:1007800070400023C6E7D21D22F00703D3E90023FF
:10079000C0E70368126843F0200303600823C361C5
:1007A0000023B7E7003100002DE9F05F89460446D9
:1007B0004FF0000ADFF874B1FB44C0F820A02046D7
:1007C000E1688847002874D0252806D0D4E90121A3
:1007D0009047206A401C2062F1E700265F462046D1
:1007E000E16888472028054607DB312D05D27819B6
:1007F00010F8200C08B10643F1E7B00701D526F048
:100800000406C4F81CA00027C4F818A02A2D09D09B
:10081000284602F047FF38B304EB8708303DC8F89C
:10082000185019E059F8041B204604EB8702916127
:10083000E1688847012F054618D1E069002820DAD1
:1008400026F020061DE0D8F8180000EB800005EB2C
:1008500040003038C8F818002046E168884705464F
:1008600002F020FF0028EED1012F0AD02E2D08D152
:100870002046E16888477F1C0546022F46F0200687
:10088000C4DBA069002803DA404246F00106A061FB
:10089000F00701D026F010066C2D0BD0682D09D082
:1008A0004C2D39D06A2D35D0742D35D07A2D33D0DA
:1008B00016E038E0E1682F4620468847B8420546F2
:1008C00009D16C2F26D04FF48060E16806432046A2
:1008D0008847054604E06C2F1AD04FF48070064319
:1008E0000DB3A5F14100192802D8203546F4006661
:1008F0004A462946204626604E46FFF79BFC80B1BB
:1009000001280BD0F61D26F0070000F1080956E774
:100910004020E4E78020D8E70020D6E706F104096C
:100920004DE7284652E7206ABDE8F09F903000006E
:1009300030B5B0F10A0271F100034FEA900E4EEAB1
:10094000817EB0EB0E0061EB91014FEA101E4EEA82
:10095000017E10EB0E0041EB11114FEA102E4EEA12
:10096000016E10EB0E0041EB11214FEA104E4EEAE2
:10097000014E10EB0E0041EB1141401841F1000116
:100980004FEAD00040EA41704FEAD1014FEA8104BA
:1009900044EA907410EB800544EB01046D1944EBBC
:1009A0000404521BA3414FF0000348BF0A3200D594
:1009B00030BD401C41F1000130BD2DE9F0470D462E
:1009C00099469246044600F124080168880604D539
:1009D000E06921F01001216000E00120A84201DD62
:1009E000471B00E00027A1697A1902EB0900081AE9
:1009F000A0612078C00602D42046FFF7E7FC00265D
:100A000008E0D4E901211AF806009047206A401C4A
:100A1000761C20624E45F4DB2078C0060AD52046BD
:100A2000FFF7D4FC06E0D4E9012130209047206A8A
:100A3000401C2062381EA7F10107F4DC07E0D4E96E
:100A4000012118F805009047206A401C2062281EEA
:100A5000A5F10105F3DC2046FFF7CEFC2078000667
:100A600002D50220BDE8F0870120FBE72DE9FF4F0A
:100A70000C461E464FF0FF378BB0D2E90001DDF87F
:100A800060800A908A46C1F30A5505B93D460021A7
:100A900008464FF00000BAF1000F00F4400005DAFC
:100AA00000EB80004FF4400101EA50004FEA9059FA
:100AB000B9F1010F00DDB9460A9850EA4A000ED09C
:100AC00044F61050A5F2FF3545432F14B8F1000F3E
:100AD0001ED07542291E1EDDC9F100021CE0B8F1CE
:100AE000010F4FF0000001D0302103E0F24305E098
:100AF0002154401CB042FBDB30460022002121542F
:100B00000B99C1F80880C1E900200FB0BDE8F08F53
:100B1000BD1B6D1CDEE74A4600DA694206A800F0FC
:100B2000F3FB06AB93E8070003AB83E807005046EE
:100B30000A9902F0D6F98DE80700A0F500501F3899
:100B400000900398002D0ADD42F21F014A46084436
:100B5000002303A90390684602F040FC09E0A0F5D9
:100B600000504A461F38002303A90390684602F04C
:100B70004AFC8DE807000004000C03D04FF0FF3062
:100B8000410800E01046B8F1000F03D000220092A7
:100B900015461EE0751E05D4FFF7CAFE30326255B9
:100BA0006D1EF9D5B3460122084302D000227F1CF6
:100BB00004E02078302801D100227F1E002A099706
:100BC00084D01DE0112D07DAFFF7B2FE30326255F6
:100BD0006D1C50EA0102F5D1084302D00098C8B15B
:100BE0000EE00021681E05E0235C625C6354225421
:100BF000401E491C8142F7DBAB46A81B401E0990F2
:100C0000002004F80B000B98099AC0F80880C0E98E
:100C1000002B7AE711264FF0000857E72DE9F04F37
:100C200088460446D21D22F0070191B0D1E90001A7
:100C3000CDE90A0102F01EFD02460B98C00F01D05B
:100C40002D2007E02068810701D52B2002E020211C
:100C500001EAC000032A099001D0072A05DB0346F8
:100C60004146204600F010FB0BE12078800601D5BC
:100C7000E06900E00620B8F1650F814606D0B8F1C2
:100C8000660F18D0B8F1670F70D131E00020B9F1CC
:100C9000110F009001DB112301E009F101030AAA01
:100CA00001A90CA8FFF7E2FEDDE90C70002609F1AE
:100CB0000105834647E001204B4600904FF0004776
:100CC0000AAA01A90CA8FFF7D1FEDDE90DB00C9925
:100CD0005D46002610B909F101000D18B9EB0500B9
:100CE00003D4C0F1FF3609F10105A5EB09002BE0A3
:100CF000B9F1010F01DA4FF001090020B9F1110F2C
:100D00000090484601DD112300E003460AAA01A92C
:100D10000CA8FFF7ABFEDDE90C704D4600268346BC
:100D2000207800070AD4AB4500DA5D4601A8012D02
:100D300004DD411911F8011C302907D04F4502DAB2
:100D400017F1040F04DA012082460FE06D1EEEE772
:100D5000002F02DCED1B3E4403E0781CA84200DDBE
:100D60007D1CB81B00F1010A4FF0004720780007F6
:100D700003D4AA4501DB4FF0FF3A0021B7F1004F41
:100D80000DF143088DF8431024D002202B23002FAF
:100D900001DA7F422D230A21021EA0F1010000DCAE
:100DA0005FB197FBF1FC97FBF1F201FB1C7C17464E
:100DB0000CF1300C08F801CDEEE7A8F1010003704A
:100DC0002188090501D5452100E06521A0F1010830
:100DD00000F8011C09980FA9A1EB0807FF1D00B13D
:100DE0000120411901EBEA70A1693844081A401E3C
:100DF000A0612078C00602D42046FFF7E7FA0998E0
:100E000028B1D4E901219047206A401C2062207853
:100E1000C00622D52046FFF7D9FA1EE0002E04DBDB
:100E2000B34502DD01A8805D00E03020D4E9012156
:100E30009047206A401C2062761CAAF101005FEAFC
:100E4000000A0AD100F01CFAC0680168405CD4E9CD
:100E500001219047206A401C2062281EA5F101054F
:100E6000DCDC07E0D4E9012118F8010B9047206A87
:100E7000401C2062381EA7F10107F3DC2046FFF773
:100E8000BBFA032011B041E62DE9F04F04460D46B0
:100E9000D21D22F0070089B0D0E9009748463946B4
:100EA00002F0E8FB0246F80F01D02D2307E020688E
:100EB000810701D52B2302E0202101EAC0038DF830
:100EC00020300BB1012000E00020032A824601D02F
:100ED000072A04DB2946204600F0D6F93FE12078B6
:100EE000800601D40D2500E0E569C7F30A560D2DF3
:100EF00049DA00214FEA175B08464FF00000002F47
:100F000000F4400007DA00EB80004FF4400100EBF2
:100F1000D07001EA60008115012901DD4FF0FF3139
:100F200000224FEA850CBCF1180F06D31346ACF132
:100F300018004FF08052C24003E04FF4801323FAB0
:100F40000CF30CF10C0CBCF1200F04D3ACF1200C11
:100F500009FA0CF001E007FA0CF000294FF0004804
:100F600001DD18B90FE00ED140450CD319EB020991
:100F70005F4121B9404502D19F4329EA0209BBEBF9
:100F8000175F00D0761C2088000502D57B48784486
:100F900002E07A487844193808AA302302F80A3067
:100FA000037C0AF10101002E0AF1020A53546A4639
:100FB00002DC4FF0300101E04FF031014FF0010849
:100FC0008DF8001002D0A6F2FF3603E059EA47017F
:100FD00000D06B4E002D02DC2178090704D54FF0BC
:100FE00002082E218DF80110C44600210BE0C7F342
:100FF00003433F01C35C491C6D1E02F808300529FC
:1010000008F1010801DA002DF1DC00210CE000EB11
:101010001973491C1B786D1E082902F808304FEA25
:10102000091908F1010801DA002DF0DC21688B06AE
:1010300002D516E0A8F10108E04505DD02EB080342
:1010400013F8013C302BF5D0B8F1000F09DD02EBAD
:10105000080313F8013C2E2B03D1090701D4A8F192
:101060000108002D05DD3E2102F808106D1E08F173
:101070000108407C002E02F8080008F1010804DA9B
:101080002D20764202F8080002E02B2002F808002A
:101090000A214FF47A70864208F101080BDB96FBB7
:1010A000F0F3303302F8083096FBF0F308F1010852
:1010B00000FB136601E0642E0CDB642096FBF0F36A
:1010C000303302F8083096FBF0F308F1010800FB1A
:1010D000136601E00A2E06DB96FBF1F0303002F8D1
:1010E000080008F1010896FBF1F001FB10603030B8
:1010F00002F80800A16908F1010808EB050202EBFB
:101100000A00081AA0612078C00602D42046FFF722
:101110005DF9216A08AE01EB0A00206204E0D4E91F
:10112000012116F8010B9047BAF1010AF7D2207895
:10113000C00602D52046FFF749F96E4609E016F8C9
:10114000010B3E280FD0D4E901219047206A401CB2
:101150002062B8F10108F2D22046FFF74DF909B03C
:101160000320BDE8F08F206A2844206203E0D4E920
:101170000121302090476D1EEBD3F8E7DE280000F8
:1011800002FCFFFF10B5436913B1AFF3008001E02B
:10119000FFF755F9012010BD127800F124010A7003
:1011A00000224A700122EDE711684FF0FF32E9E7B3
:1011B00010B5436913B1AFF3008001E0FFF7D6F932
:1011C000012010BD128800F1240182840022C28413
:1011D0000122EDE711684FF0FF32E9E72DE9F04118
:1011E00016460C46054600F043F8036893F80101E3
:1011F000012807D0FF2C12D8185D80B101202C7077
:10120000BDE8F081D3F807013246214603F2071307
:10121000C7182846BC46BDE8F041002360474FF0A0
:10122000FF30EDE7754600F0EBF8AE460500694685
:10123000534620F00700854618B020B5FFF774F834
:10124000BDE820404FF000064FF000074FF00008C7
:101250004FF0000BAC46ACE8C009ACE8C009ACE804
:10126000C009ACE8C00921F007018D4670470000B5
:1012700010B500F005F8001D10BD00BF652400008A
:1012800000487047380000202DE9F0411F46044611
:1012900003260168072A01F4006004DB08B116A5E3
:1012A00005E016A503E008B115A500E015A521F09D
:1012B00010002060A069C01EA0610FB1401EA06197
:1012C0002046FFF783F84FB1D4E901213846904713
:1012D000206A401C2062C01C206206E0206AFAE7F7
:1012E000D4E9012115F8010B9047761EF8D220466B
:1012F000FFF782F8BDE8F0814E414E006E616E004E
:10130000494E4600696E66002DE9F0478146164653
:101310008AB0354878440DC88DE80D0032487844CD
:10132000801C03AC0DC884E80D0041F69B300844D6
:10133000372190FBF1F290FBF1F5A5F1800501FB5F
:1013400012041B3C02D56442012000E00020DFF8BB
:1013500098A080460027FA44AAF1BE0A0EE0E007F2
:101360000AD03246684607EB470101230AEB8101A8
:1013700002F049F88DE8070064107F1C002CEED1C4
:10138000194F7F44AE3F19E0E80715D007EB041072
:101390000DF1180A90E80E008AE80E00C068F042CD
:1013A00001D1981908903246012306A903A802F03A
:1013B0002AF803AB83E807006D10641C002DE3D10D
:1013C0004FF0010332466946B8F1000F03A802D07E
:1013D00002F004F801E002F016F8C9E90001C9F8CA
:1013E00008200AB0BDE8F087E825000010B50446E3
:1013F000AFF300802046BDE81040FEF780BF00003C
:10140000004870471800002030B44FF0013C50F8FD
:10141000042B51F8043BCCFA52F4D51A20D1FCB974
:1014200050F8042B51F8043BCCFA52F4D51A17D1DA
:10143000B4B950F8042B51F8043BCCFA52F4D51A45
:101440000ED16CB950F8042B51F8043BCCFA52F48D
:10145000D51A05D1002CDAD030BC4FF0000070470F
:1014600029BAB1FA81F111F01801D1F120008440BC
:10147000F2D1CA40CB4012F0FF0213F0FF0330BCA0
:10148000D01A704701491820ABBEFEE726000200C3
:101490007047000080B5012000F048F958B1FFE71F
:1014A00043F62732C0F6000214201E214FF4FC63DD
:1014B00001F00CFA1FE00A2001F002F8072000F00A
:1014C00035F908B1FFE7FFE70A2000F0F9FF102027
:1014D00000F02CF958B1FFE743F64032C0F60002A5
:1014E0001E214FF4FC63084601F0F0F903E0C82028
:1014F00000F0E6FFFFE780BD80B582B045F2004016
:10150000C4F2000000F07EFDFFE745F20040C4F2A7
:10151000000000F0D1FD08B9FFE7F6E745F2004012
:10152000C4F20000472100F0FFFDFFE745F2004054
:10153000C4F2000000F0A8FD08B9FFE7F6E745F2A5
:101540001840C4F200000068FFE745F20040C4F212
:10155000000000F0A9FD08B9FFE7F6E745F20040FA
:10156000C4F2000000F0B8FD8DF80600FFE745F278
:101570000040C4F2000000F097FD08B9FFE7F6E76D
:1015800045F20040C4F20000009000F0A5FD0146C5
:1015900000988DF8071000F03FFD9DF806109DF8AB
:1015A000070040EA0120ADF80400BDF8040000EE99
:1015B000100AB8EE400A9FED031A80EE010A02B04D
:1015C00080BD00BF9A99993FFFE7FEE77047000092
:1015D00080B58AB00220019000F030F90198002116
:1015E00009910891079106910591049104220992AD
:1015F000059001220792402204920891069040F241
:101600000040C4F20200039004A9029100F0F0F936
:10161000029903988022049200F0EAF90AB080BD92
:1016200080B58EB00120039000F008F900210491EC
:101630000D910C910B910A9109910891202008902D
:1016400002200590099003220A920B910C9005202C
:101650000D900020C4F20200029008A9069100F04B
:10166000C7F9069902988022089200F0C1F9039AFE
:101670000699029810230193089309920C9200F0A6
:10168000B7F90199029800F0BFFA059800F0D6F872
:10169000039A40F20040C4F202000790114600F0A5
:1016A00001FB039A0599079800F0FCFA039B049A42
:1016B00007980699089309930C9200F099F9059AF6
:1016C00006990798089200F093F90EB080BD0000CB
:1016D000FFE7FEE780B58AB00020009009900890EF
:1016E0000790069005900490039002904FF400102C
:1016F00000F0C8F80098029048F2A061C0F2010121
:101700000391049007904FF4806008904FF480405C
:10171000099045F20040C4F20000019002A900F0D7
:1017200085FC019800F064FC0AB080BD80B584B0EF
:101730008DF80B0045F20040C4F2000000F062FC9E
:1017400040F64050C0F203000190FFE745F2004030
:10175000C4F2000000F0B0FC38B9FFE7019801388E
:10176000019008B9FFE75CE0F0E745F20040C4F201
:101770000000462100F0D8FC40F64050C0F20300C3
:101780000190FFE745F20040C4F2000000F07CFC4D
:1017900038B9FFE701980138019008B9FFE740E048
:1017A000F0E745F21840C4F20000006840F64050EF
:1017B000C0F203000190FFE745F20040C4F20000D0
:1017C00000F082FC38B9FFE701980138019008B9B0
:1017D000FFE726E0F0E79DF80B1045F20040C4F269
:1017E000000000F0A1FC40F64050C0F20300019060
:1017F000FFE745F20040C4F2000000F04DFC38B9AC
:10180000FFE701980138019008B9FFE709E0F0E728
:1018100045F20040C4F2000000F0FEFB00200390FF
:1018200009E045F20040C4F2000000F0F5FB4FF083
:10183000FF300390FFE7039804B080BD82B00190B1
:10184000019A43F63000C4F20200016811430160BE
:101850000068019908400090009802B070470000AD
:1018600082B00190019A43F64000C4F20200016880
:10187000114301600068019908400090009802B08F
:101880007047000082B00190019A43F64000C4F214
:10189000020001681143016000680199084000904E
:1018A000009802B07047000082B00190019A43F6A0
:1018B0004400C4F20200016811430160006801990C
:1018C00008400090009802B07047000082B001907C
:1018D000019A43F64400C4F202000168114301601A
:1018E0000068019908400090009802B0704700001D
:1018F00081B0009000994FF40010C86001B07047AB
:1019000082B0019000910199009A43F60B30C0F625
:101910000000825C885820F00100885002B07047B7
:1019200082B0019000910199009A43F60B30C0F605
:101930000000825C885840F00100885002B0704777
:1019400082B0019000910198009A43F60B31C0F6E5
:101950000001895C0844406880B202B07047000012
:1019600081B0009000984068C0F3405001B07047CB
:1019700083B00290019100920298019943F60B32D4
:10198000C0F60002515C084440684FF6FF7188437E
:10199000009908430299019BD25C1144486003B04E
:1019A0007047000083B00290019100920098029964
:1019B000019B43F60B32C0F60002D25C1144C860B2
:1019C00003B0704743F60040C4F20200006800F024
:1019D0000700704781B0009043F60041C4F2020155
:1019E000086820F00700009A1043086001B07047B3
:1019F00080B588B003900291002001900090029879
:101A0000006890FAA0F00690069820B9FFE7202021
:101A10008DF81F0005E00698B0FA80F08DF81F00E1
:101A2000FFE79DF81F000190FFE702980068019909
:101A3000C84000285DD0FFE702980068019A0121A4
:101A4000914008400090009800284ED0FFE702988F
:101A50004068012805D0FFE70298406802280DD1B0
:101A6000FFE703980099029A926800F0A7F903989B
:101A70000099029AD26800F053F9FFE703980099A1
:101A8000029A126900F05CF902984068022825D198
:101A9000FFE7009890FAA0F00490049820B9FFE7BF
:101AA00020208DF8170005E00498B0FA80F08DF83A
:101AB0001700FFE79DF81700072807D8FFE70398EE
:101AC0000099029A526900F021F806E00398009903
:101AD000029A526900F058F8FFE7FFE7039800996F
:101AE000029A526800F0A0F8FFE7019801300190D7
:101AF0009BE7002008B080BD82B001900091009863
:101B000000040199886102B0704700008AB0059016
:101B1000049103920598006A0290049890FAA0F04C
:101B20000890089820B9FFE720208DF8270005E0ED
:101B30000898B0FA80F08DF82700FFE702989DF82A
:101B400027108A000F21914088430090039801904C
:101B5000049890FAA0F00690069820B9FFE720209C
:101B60008DF81F0005E00698B0FA80F08DF81F0090
:101B7000FFE7009801999DF81F20920091400843CB
:101B8000059908620AB070478AB0059004910392E3
:101B90000598406A02900498000A90FAA0F0089014
:101BA000089820B9FFE720208DF8270005E0089865
:101BB000B0FA80F08DF82700FFE702989DF8271013
:101BC0008A000F2191408843009003980190049867
:101BD000000A90FAA0F00690069820B9FFE72020AE
:101BE0008DF81F0005E00698B0FA80F08DF81F0010
:101BF000FFE7009801999DF81F209200914008434B
:101C0000059948620AB0704782B00190009100982F
:101C10000199886102B0704782B0019000910098EC
:101C20000199886102B070478AB0059004910392CF
:101C3000059800680290049890FAA0F0089008981F
:101C400020B9FFE720208DF8270005E00898B0FABA
:101C500080F08DF82700FFE702989DF827104A00D2
:101C6000032191408843009003980190049890FAD2
:101C7000A0F00690069820B9FFE720208DF81F00FD
:101C800005E00698B0FA80F08DF81F00FFE7009895
:101C900001999DF81F205200914008430599086062
:101CA0000AB070478AB005900491039205980068C5
:101CB0000290049890FAA0F00890089820B9FFE7E5
:101CC00020208DF8270005E00898B0FA80F08DF804
:101CD0002700FFE702989DF827104A000321914052
:101CE0008843009003980190049890FAA0F0069021
:101CF000069820B9FFE720208DF81F0005E0069820
:101D0000B0FA80F08DF81F00FFE7009801999DF868
:101D10001F20520091400843059908600AB070479F
:101D200083B0029001910092029840680199884323
:101D3000009A514308430299486003B0704700007D
:101D40008AB00590049103920598C06802900498A7
:101D500090FAA0F00890089820B9FFE720208DF8AD
:101D6000270005E00898B0FA80F08DF82700FFE71B
:101D700002989DF827104A00032191408843009063
:101D800003980190049890FAA0F00690069820B964
:101D9000FFE720208DF81F0005E00698B0FA80F0DC
:101DA0008DF81F00FFE7009801999DF81F20520051
:101DB000914008430599C8600AB070478AB0059001
:101DC00004910392059880680290049890FAA0F01C
:101DD0000890089820B9FFE720208DF8270005E03B
:101DE0000898B0FA80F08DF82700FFE702989DF878
:101DF00027104A00032191408843009003980190E6
:101E0000049890FAA0F00690069820B9FFE72020E9
:101E10008DF81F0005E00698B0FA80F08DF81F00DD
:101E2000FFE7009801999DF81F2052009140084358
:101E3000059988600AB0704782B0019000910198BE
:101E4000006820F48060009908430199086002B09E
:101E50007047000083B00290019100920298406A9E
:101E600020F01F000199009A11430843029948622B
:101E700003B070478CB00B900A9109920893002030
:101E8000079006900A984DF68361C4F21B31A0FBBF
:101E90000110800C07900B98406820F03F000799D4
:101EA00008430B9948600B98006A20F03F000590AA
:101EB000099848F2A061C0F20101884204D8FFE706
:101EC0000798013004900EE007984FF4967148434C
:101ED00044F6D351C1F26201A0FB0101012000EBE5
:101EE00091100490FFE70598049908430B99086244
:101EF000099848F2A161C0F20101884238D3FFE796
:101F00000898B8B9FFE70A98099901EB4101B0FBBD
:101F1000F1F0000518B9FFE70120039007E00A98E7
:101F2000099901EB4101B0FBF1F00390FFE7039841
:101F3000029016E00A98099919225143B0FBF1F07A
:101F4000000518B9FFE70120019007E00A980999F8
:101F500019225143B0FBF1F00190FFE70198029084
:101F6000FFE702980899084340F40040069016E005
:101F70000A9809994900B0FBF1F06FF31F3003286C
:101F800003D8FFE70420009006E00A980999490069
:101F9000B0FBF1F00090FFE700980690FFE70B9888
:101FA000C0694CF6FF718843069908430B99C861D4
:101FB0000CB0704781B000900099086820F00100D3
:101FC000086001B07047000081B000900099086877
:101FD00040F00100086001B07047000081B000903F
:101FE0000099086840F00100086001B070470000E7
:101FF00081B000900099086840F00100086001B0CD
:102000007047000081B000900099086840F480702B
:10201000086001B07047000081B000900099086826
:1020200040F40070086001B07047000080B586B0D1
:10203000059004910598FFF7BDFF684600F0E0F8B1
:102040000598049AD1681269FFF704FF0598029970
:10205000049B5A689B68FFF70DFF0598049A516925
:10206000D26900F04FF805980499096800F03CF82F
:102070000598FFF7B3FF059804998969FFF7DCFE1F
:10208000002006B080BD000081B00090009840693B
:10209000C0F3400001B0704781B0009000984069E3
:1020A000C0F3800001B0704781B000900098406993
:1020B000C0F3801001B0704781B000900098406973
:1020C00000F0010001B0704781B0009000984069B5
:1020D000C0B2C00901B0704781B00090009800699B
:1020E000C0B201B07047000082B001900091019829
:1020F000006820F01A00009908430199086002B0B6
:102100007047000083B002900191009202988068AD
:1021100048F2FF3188430199009A1143084302991C
:10212000886003B07047000082B001908DF8031002
:102130000198006920F0FF009DF803100844019900
:10214000086102B07047000080B582B0019001982C
:102150004FF47A7100F002F802B080BD82B00190B5
:10216000009101980099B0FBF1F001384EF2140192
:10217000CEF2000108604EF21801CEF200010020FC
:1021800008604EF21001CEF200010520086002B096
:102190007047000081B0009047F20001C4F20001D6
:1021A000086820F44040009A1043086001B070476E
:1021B00043F60800C4F20200006800F0F000704727
:1021C00043F60800C4F20200006800F4E0507047D3
:1021D00043F60800C4F20200006800F46040704753
:1021E00043F60800C4F20200006800F00C007047DB
:1021F00043F60800C4F20200006800F00C007047CB
:1022000080B582B0019000F0F5F90199086001985D
:10221000006800F0B7F9019948600198406800F043
:10222000C5F9019988600198406800F0D1F90199D9
:10223000C86002B080BD000043F60001C4F2020194
:10224000086840F0010008607047000043F6000095
:10225000C4F202000068C0F34000704781B00090F3
:1022600043F60001C4F20201086820F0F800009A69
:1022700040EAC200086001B07047000043F6040065
:10228000C4F20200006800F03F00704743F604000B
:10229000C4F20200006800F48000704743F60400B6
:1022A000C4F202000068C0F38810704743F60400CF
:1022B000C4F20200006800F44030704781B0009022
:1022C00043F60801C4F20201086820F0F000009A09
:1022D0001043086001B0704781B0009043F60801D8
:1022E000C4F20201086820F4E050009A104308602C
:1022F00001B0704781B0009043F60801C4F20201BA
:10230000086820F46040009A1043086001B07047EC
:1023100081B0009043F60801C4F20201086820F081
:102320000300009A1043086001B0704781B000902C
:1023300043F68C01C4F20201086820F08070009A14
:102340001043086001B0704781B0009000990868A0
:1023500040F04000086001B07047000080B584B0D4
:102360000390029101208DF80700039800F054F8C3
:10237000C0BBFFE7039800684FF6BF718843029A1D
:1023800000921168D2F804E0D2F808C0D36841EA9C
:102390000E0141EA0C0119431369194353691943AA
:1023A00093691943D3691943126A11430843039986
:1023B00008600398406820F004000299C98A084325
:1023C000039948600298006AB0F5005F06D1FFE704
:1023D00003980299496A00F027F8FFE700208DF87A
:1023E0000700FFE70399C86920F40060C8619DF801
:1023F000070004B080BD000081B0009000988068A4
:10240000C0B2C00901B0704781B0009000988068E8
:10241000C0F3400001B0704781B0009000980068A0
:10242000C0F3801001B0704782B001900091BDF8F8
:1024300000000199086102B07047000082B001906D
:1024400000910198406820F010000099084301991C
:10245000486002B07047000083B002908DF807100A
:1024600002980C3000909DF807000099087003B0A6
:102470007047000081B00090009840F20001C2F265
:102480000001086001B0704782B0019001980068B7
:1024900000900098019840680090009802B0704742
:1024A00081B0009000980068C0F3001001B0704740
:1024B00081B0009000980068C0F3801001B07047B0
:1024C00082B001904EF21000CEF200000068009041
:1024D00000980198013020B1FFE701980130019088
:1024E000FFE7FFE7019870B1FFE74EF21000CEF270
:1024F00000000068C003002804D5FFE701980138F8
:102500000190FFE7EEE702B070470000FFE7FEE74B
:10251000FFE7FEE788B0079006910592079800F064
:10252000070004900498C0F10700052803D3FFE7D3
:102530000420019004E00498C0F107000190FFE737
:102540000198039004980430062803D8FFE7002080
:10255000009003E0049803380090FFE70098029091
:1025600006980399012202FA01F101390840029B01
:10257000984005999A40013A1140084308B07047C5
:102580007047000080B582B0019001980090FFF77D
:102590000FFE01460098C9B20A0943F61811C0F6A9
:1025A0000001895CC84002B080BD000080B582B0E7
:1025B000019001980090FFF703FE014600988A0AF7
:1025C00043F62811C0F60001895CC84002B080BD06
:1025D00080B582B0019001980090FFF7F9FD0146A7
:1025E00000984A0B43F62811C0F60001895CC840E8
:1025F00002B080BD80B582B000200190FFF7F8FDE9
:102600000146009140B1FFE7009804280AD0FFE797
:10261000009808280CD010E042F20040C0F2F4000C
:10262000019010E047F64000C0F27D1001900AE0F2
:10263000082000F00BF8019005E042F20040C0F2E3
:10264000F4000190FFE7019802B080BD80B588B02A
:1026500007900020069005900490FFF717FE059064
:102660000598039028B1FFE70398B0F5800F06D0D6
:102670000BE042F20040C0F2F40006900BE047F697
:102680004000C0F27D10069005E042F20040C0F22A
:10269000F4000690FFE7079808281BD1FFE706988B
:1026A0000090FFF7EBFD01460098B0FBF1F00190C0
:1026B000FFF7F4FD0146019848430290FFF7F6FD4D
:1026C000014602980A0C022101EB4201B0FBF1F035
:1026D0000490FFE7049808B080BD000080B58EB07C
:1026E0004FF48050FFF7F2F804A801902821FDF77D
:1026F00043FE01990020029004904FF482720592EB
:102700000690079008904FF40072099208220A92EE
:102710000B900C900A200D9043F20000C4F20100CF
:102720000390FFF71BFE02990398FFF787FE0398BB
:10273000FFF70AFE0EB080BD80B584B08DF80F00A3
:102740008DF80E108DF80D20ADF80A309DF80F00B1
:102750009F2805DCFFE79DF80E006E2801DBFFE7F0
:102760005AE000208DF80900FFE79DF809000428D1
:1027700052DCFFE79DF80D0000EB80009DF809108A
:10278000084443F63011C0F60001084410F8A00CCC
:102790008DF8080000208DF80700FFE79DF807007E
:1027A000072832DCFFE79DF80800C00788B1FFE783
:1027B0009DF80F009DF8091008449DF80E109DF833
:1027C00007201144BDF80A20C0B2C9B200F026F8B3
:1027D0000FE09DF80F009DF8091008449DF80E10B9
:1027E0009DF807201144C0B2C9B2002200F016F8CB
:1027F000FFE79DF8080040088DF80800FFE79DF806
:10280000070001308DF80700C8E7FFE79DF80900D1
:1028100001308DF80900A8E704B080BD80B582B012
:102820008DF807008DF80610ADF804209DF807001C
:102830009F2805DCFFE79DF806006E2801DBFFE717
:1028400041E09DF807209DF806301046194600F03B
:10285000FBF800F0F1F840F20040C4F20200012160
:10286000FFF7DAF9FFE743F20000C4F20100FFF7D7
:10287000CBFD08B9FFE7F6E79DF8051043F200002D
:10288000C4F20100FFF7E8FDFFE743F20000C4F2E5
:102890000100FFF7B9FD08B9FFE7F6E79DF804105E
:1028A00043F20000C4F20100FFF7D6FDFFE743F258
:1028B0000000C4F20100FFF79FFD08B1FFE7F6E753
:1028C00000F0F4F8FFE702B080BD000080B584B0EE
:1028D0008DF80F008DF80E100292ADF80630FFE76C
:1028E0000298007898B1FFE79DF80F009DF80E1050
:1028F000029A1278BDF80630FFF71EFF9DF80F0010
:1029000006308DF80F00029801300290E8E704B01D
:1029100080BD000080B584B0ADF80E0000210191AB
:10292000A0226E23084600F08FF800F085F840F2F0
:102930000040C4F202000121FFF76EF901980290F5
:10294000FFE7029844F2BF41884229D8FFE7FFE73A
:1029500043F20000C4F20100FFF756FD08B9FFE79B
:10296000F6E79DF80F1043F20000C4F20100FFF7F4
:1029700073FDFFE743F20000C4F20100FFF744FDDE
:1029800008B9FFE7F6E79DF80E1043F20000C4F225
:102990000100FFF761FDFFE7029801300290D0E7E8
:1029A000FFE743F20000C4F20100FFF725FD08B184
:1029B000FFE7F6E700F07AF804B080BD80B582B09A
:1029C00000F022F8012000F079F896200190FFF73E
:1029D00077FD112000F072F80198FFF771FD3A20A1
:1029E00000F06CF8052000F097F8362000F066F84B
:1029F000602000F091F8212000F060F8292000F01C
:102A00005DF802B080BD000080B584B040F20040A7
:102A1000C4F20200019002210291FFF76DF80A2032
:102A20000390FFF74DFD01980299FFF7F5F8039821
:102A3000FFF746FD04B080BD80B50020C4F202005F
:102A40001021FFF759F880BD80B582B08DF80700DE
:102A50008DF806108DF805208DF804302A2000F03E
:102A60002DF80020009000F057F89DF8070000F0C6
:102A700053F8009800F050F89DF8050000F04CF86D
:102A80002B2000F01BF8009800F046F89DF8060097
:102A900000F042F8009800F03FF89DF8040000F0C4
:102AA0003BF82C2000F00AF802B080BD80B5002071
:102AB000C4F202001021FFF7AFF880BD80B582B0EC
:102AC0008DF8070040F20040C4F202000121FFF738
:102AD00013F8FFF7B1FFFFE743F20000C4F2010073
:102AE000FFF792FC08B9FFE7F6E79DF8071043F2FD
:102AF0000000C4F20100FFF7AFFCFFE743F2000063
:102B0000C4F20100FFF778FC08B1FFE7F6E7FFF732
:102B1000CDFF02B080BD000080B582B08DF8070007
:102B200040F20040C4F202000121FFF775F8FFF700
:102B300083FFFFE743F20000C4F20100FFF764FCEB
:102B400008B9FFE7F6E79DF8071043F20000C4F26A
:102B50000100FFF781FCFFE743F20000C4F201002F
:102B6000FFF74AFC08B1FFE7F6E7FFF79FFF02B067
:102B700080BD0000704700007047000080B582B043
:102B80000020FEF727FFFFE7FEF71CFF08B1FFE775
:102B9000FAE74FF40040FFF7FDFA1020FFF75EFB65
:102BA000FFF74AFBFFE7FFF751FB012801D0FFE7E2
:102BB000F9E700200190FFF781FB0198FFF78CFBFC
:102BC0000198FFF797FB0198FFF7A2FBFFE7FFF7DC
:102BD00007FB08B1FFE7FAE742F20040C0F2F40059
:102BE0000090FFF7B1FA0098FFF744FC0020FFF7D0
:102BF0009DFB02B080BD00004EF68851CEF2000170
:102C0000086840F4700008607047000080B58AB022
:102C100044F20040C4F20000FFF742FC002800F03C
:102C2000B080FFE744F20040C4F20000FFF72CFC44
:102C300046F20000C4F20200089005210791FEF759
:102C40007FFE079902460898C2F140028DF82720BE
:102C5000FEF756FE9DF8270040F27801C2F200010F
:102C6000084410F8010C8DF826009DF82600302845
:102C70003CD1FFE746F20000C4F2020005900621B5
:102C80000691FEF73DFE0598069940F20402C2F255
:102C90000002FEF787FE059806990522FEF768FEFA
:102CA00005980699FEF73CFEFFE746F20000C4F2E5
:102CB0000200FEF755FE08B9FFE7F6E746F200000E
:102CC000C4F20200FEF714FEFFE744F20040C4F233
:102CD0000000FFF7EDFB08B9FFE7F6E746F200005A
:102CE000C4F202000621FEF70BFE3BE046F20000B4
:102CF000C4F20200039006210491FEF701FE03983E
:102D0000049940F20A02C2F20002FEF74BFE039859
:102D100004990722FEF72CFE03980499FEF700FEA3
:102D2000FFE746F20000C4F20200FEF719FE08B900
:102D3000FFE7F6E746F20000C4F20200FEF7D8FD16
:102D4000FFE744F20040C4F20000FFF7B1FB08B90E
:102D5000FFE7F6E746F20000C4F202000621FEF7A4
:102D6000CFFDFFE746F20000C4F20200019005210A
:102D700002914022FEF7FCFD01980299FEF7D0FD7A
:102D8000FFE70AB080BD0000FFE7FEE74EF60C50FB
:102D9000CEF200000068C0F30220704782B08DF8C8
:102DA000070000919DF9070000280AD4FFE700986A
:102DB00000019DF907104EF20042CEF20002885445
:102DC0000BE0009800019DF8071001F00F014EF68E
:102DD0001452CEF200028854FFE702B070470000A0
:102DE00083B00290029800F0070000904EF60C515C
:102DF000CEF200010868019001984FF6FF021040E2
:102E000001900198009A40EA02200022C0F2FA5292
:102E1000104301900198086003B0704780B58CB0F2
:102E2000002001900B904FF48040FEF73DFD4FF0E5
:102E30008050FEF715FD0320FFF7D2FFFFF7A6FF36
:102E4000019A0F21FFF766FB01464FF0FF30FFF7B5
:102E5000A5FFFFF793FEFEF7E3FBFFF73FFCFEF74E
:102E6000B7FBFEF737FC45F20040C4F20000FFF765
:102E7000ABF8FFF7A3FD0198FFF74CFD43F62032B6
:102E8000C0F6000241203C214FF6FF73FFF71EFD04
:102E90004FF4FA60FFF714FB0198FFF73BFDFEF7D4
:102EA000F9FAFFE7FEF728FB8DED0A0A0A9800F011
:102EB00033FC41EC100B53EC102B43F61331C0F6EE
:102EC000000102A80090FDF741FA009A14202D217C
:102ED0004FF6FF73FFF7FAFC4FF47A70FFF7F0FA42
:102EE000E0E75FEA400C08BF91F0000F4FEA8C2347
:102EF0004FEAC12243EA51514FEA1C5018BF00F576
:102F0000F0404FEA300018BF41F000415FEA6C5CCE
:102F100000F02980BCF1FF3F08BF40F080407047BF
:102F2000130C06BF12044FF0100C4FF0000C130EE0
:102F300004BF12020CF1080C130F04BF12010CF1B4
:102F4000040C930F04BF92000CF1020CD30F04BFCA
:102F500052000CF1010C11464FF00002A0F11F00CD
:102F6000A0EB0C00704711F0004F08BF704731F024
:102F700000413FF4D5AF0B0C06BF09044FF0100C15
:102F80004FF0000C0B0E04BF09020CF1080C0B0FE4
:102F900004BF09010CF1040C8B0F04BF89000CF174
:102FA000020CCB0F04BF49000CF1010CCCF1200343
:102FB00022FA03F341EA030102FA0CF2A0EB0C003F
:102FC00000F101007047000023F07F4720F07F4CA4
:102FD00080EA030000F00040ACEB070303F57C53EC
:102FE00003F1FF032DE9804909B44FEA144324EAB1
:102FF00003484FEA154B25EA0B4E0FF2042606EB69
:1030000013273E7803FB0667C7F5000707FB06F6A4
:103010004FEAD64606F102064FEA543707FB066C24
:10302000CCF1005C4FEA1C472CEA074C0CFB06F580
:1030300007FB06F404EB15464FEA961649085FEACB
:10304000320234BF00204FF000404FEAD13706FB78
:1030500007FC4FEA1C4C0CFB0BF7D21B03FB0CF7D5
:1030600061EB07010CFB0EF7B0EB074072EB174268
:103070000CFB08F734BFA2EB0742B2EB074261EB4F
:1030800017414FEA0C444FEA910706FB07FC4FEA51
:103090001C4C0CFB0BF7B0EBC74072EB573203FB39
:1030A0000CF734BFA2EBC742B2EBC74261EB57311A
:1030B0000CFB0EF7B0EBC70072EB57720CFB08F776
:1030C00034BFA2EBC702B2EBC70261EB57714FEA04
:1030D000816141EA92114FEA826242EA90124FEA1C
:1030E000806004EBCC04039F4FEAD13706FB07FC5A
:1030F0004FEA1C4C0CFB0BF7D21B03FB0CF761EBEC
:1031000007010CFB0EF7B0EB074072EB17420CFB0C
:1031100008F734BFA2EB0742B2EB074261EB17415D
:103120004FEA8C5504EB9C244FEA910706FB07FC01
:103130004FEA1C4C0CFB0BF7B0EBC74072EB57325D
:1031400003FB0CF734BFA2EBC742B2EBC74261EB03
:1031500057310CFB0EF7B0EBC70072EB57720CFB4C
:1031600008F734BFA2EBC702B2EBC70261EB57719D
:103170004FEA816141EA92114FEA826242EA90127B
:103180004FEA806015EB4C2544F100044FEAD1373B
:1031900006FB07FC4FEA1C4C0CFB0BF7D21B03FB96
:1031A0000CF761EB07010CFB0EF7B0EB074072EB7D
:1031B00017420CFB08F734BFA2EB0742B2EB074201
:1031C00061EB17414FEA813141EA92414FEA823285
:1031D00042EA90424FEA80304FEA0C7615EB1C151C
:1031E00044F1000448EA03434EEA0B484FF0000E56
:1031F000B2EB080C71EB030724BF624639464EEB75
:103200000E0E4FF0000B0018524149414BEB0B0BD7
:10321000B2EB080C71EB03077BF1000B24BF624695
:1032200039464EEB0E0E4FF0000B0018524149414B
:103230004BEB0B0BB2EB080C71EB03077BF1000BB4
:1032400024BF624639464EEB0E0E51EA020718BF04
:1032500046F0010616EB0E7655F1000254F100011E
:1032600003D5BDE88901BDE80088BDE88901BDE856
:103270000048B619524141EB0101A3F10103704727
:1032800080807F7E7D7C7B7A7978777676757473A3
:10329000727171706F6E6E6D6C6C6B6A6A69686862
:1032A000676666656464636362616160605F5F5EF8
:1032B0005E5D5D5C5C5B5B5A5A595958585757566E
:1032C00056555555545453535252525151505050D3
:1032D0004F4F4F4E4E4D4D4D4C4C4C4B4B4B4A4A25
:1032E0004A49494948484847474747464646454569
:1032F00045444444444343434342424242414141A2
:103300009C46002B30D477002BD04FEA37071CB5F2
:1033100003B44FF010004FF01001BAF1000F06D0C7
:10332000BCF1000FDCBF40F0080040F008014FF096
:1033300000000FBCBDE810400BF1010BBBF1010F09
:1033400008BF5FEA170722BF12F1010211F1010164
:103350004FF0004143F1000300F0004043EA000059
:103360007047F9D35708D0E746EA06464FEA1646B3
:1033700013F1400F1FDD13F1200FDFBF16430A4684
:10338000002120335B42BED0C3F1200746EA064647
:103390004FEA164602FA07F746EA070622FA03F250
:1033A000C3F1200701FA07F742EA070221FA03F105
:1033B0004FF00003A7E746EA020646EA06464FEA50
:1033C000164646EA0106BCBF46EA0646360C4FF0F2
:1033D00000034FF000024FF0000194E72DE9804C0C
:1033E00070B49A46934691E8380007C831EA400C19
:1033F00048BF34EA430C03D5FFF7E6FDFFF780FF33
:10340000F0BCBDE8008C2DE9804C70B49A46934620
:1034100091E8380007C810F0804F08BF13F0804FC4
:1034200003D100F005F8FFF76BFFF0BCBDE8008C9E
:1034300020F07F4723F07F4C80EA030000F000403B
:1034400007EB0C03A3F57C53A3F1FE0392F0000FEE
:1034500000F0B38095F0000F00F077802DE901496E
:103460004FEA114021EA00484FEA144624EA064791
:1034700000FB06FC08FB06F607FB08F818EB0648FD
:103480004CEB164C00FB07F718EB07484CEB1740CA
:103490004FEA124B22EA0B4E4FEA154625EA064741
:1034A0000BFB06FC0EFB06F607FB0EFE1EEB064EA4
:1034B0004CEB164C0BFB07F71EEB074E4CEB174B78
:1034C00018EB0B0840F1000018EB0E0B58EB00084E
:1034D00040F100008F1A4FF000014FF000063CBF92
:1034E000C943661B14BFB5EB040C00213CBFC943A4
:1034F000F61B4FEA174427EA04454FEA1C472CEA1B
:10350000074C04FB076205FB07F70CFB05F616EBFF
:10351000074642EB174204FB0CFC16EB0C4642EB51
:103520001C421BEB060658EB020241414EEA8E0E8E
:1035300046EA9E0601D5BDE80189B619524141EB24
:103540000101A3F10103BDE801894FEA144524EA12
:1035500005464FEA114721EA074C05FB07F406FB35
:1035600007F70CFB06F111EB074144EB174405FB91
:103570000CFC11EB0C4144EB1C444FEA124722EACD
:10358000074C05FB07F206FB07F70CFB06F616EBEC
:10359000074642EB174205FB0CFC16EB0C4642EBD0
:1035A0001C456A1854F1000148BF7047B6195241D2
:1035B00041EB0101A3F10103704795F0000F37D0F3
:1035C0004FEA114221EA02464FEA144724EA074C27
:1035D00002FB07F106FB07F70CFB06F414EB0744AC
:1035E00041EB174102FB0CFC14EB0C4441EB1C417A
:1035F0004FEA154725EA074C02FB07F506FB07F7DC
:103600000CFB06F616EB074645EB174502FB0CFCD8
:1036100016EB0C4645EB1C42121951F1000148BF54
:103620007047B619524141EB0101A3F10103704704
:103630004FEA144524EA05464FEA114721EA074CB0
:1036400005FB07F106FB07F70CFB06F212EB07423E
:1036500041EB174105FB0CFC12EB0C4251EB1C41FA
:103660004FF0000648BF7047921841EB0101A3F1EB
:103670000103704703B401984100009850EAC1204B
:1036800018BF04204A0D18BF40F0010040F2FF723D
:10369000B2EB515F08BF40F00200012808BF0520CF
:1036A00002B0704730380A2801D20120704700204C
:1036B0007047000010B500290AD00878002807D00C
:1036C00005487844FDF7A0FE002801D0002010BD79
:1036D0000248784410BD0000C2040000BA04000093
:1036E00010B500290AD00878002807D0054878448A
:1036F000FDF78AFE002801D0002010BD0248784462
:1037000010BD0000B2040000AA0400000808A0F5E3
:1037100000114FEA3101704743004FEAD30C4FEAE2
:103720003C0C43401FBF40070CF1605113F0FE4FAB
:1037300070471CF0006F03D10CF00041002070476F
:103740000CF0004343EA507040EACC0010B500F0A2
:103750000EF800BF000000924FEA0001FFF7D6BF4D
:103760004FF00041A1F500214FF0000070470EF12D
:10377000020E2EF0030E5EF8044B244204D44FEAEE
:103780004102B2F17F4F11D84FEA4003B3F17F4FAE
:103790000CD80ED14FEAD07C0CEB4C0C0CF1020C87
:1037A000B2F17F4F08BF4CEBD17C04E04FF0080C26
:1037B00001E04FEAD17C0CEB4C0324FA03F404F053
:1037C0000704B4F1040C06D20EEB840CBDE81040E3
:1037D0004CF0010C6047DFE80CF0070802024FF0E4
:1037E0000040A0F5800010BD0846420018BFD2F18D
:1037F000807288BF00F0004010BDF1EE100A4FF655
:10380000FF71C0F2C03120EA010040F04070E1EEEB
:10381000100A7047FDF702BAFDF736BB0000000042
:103820000000000030313233343536373839414208
:103830004344454640305800303132333435363712
:1038400038396162636465664030780004000008BE
:1038500000000000000000020001000010303132C2
:1038600033343536373839616263646566787000A1
:1038700030313233343536373839414243444546A6
:103880005850000002400000000000A000000000AE
:1038900005400000000000C8000000000C400000CF
:1038A0000000409C00000000194000000020BCBE49
:1038B0000000000034400000BFC91B8E000000045F
:1038C000B5400000504BCFD06607E2CF01000000AA
:1038D0006C4100003E8251AADFEEA73401000000D7
:1038E000D9420000DCB5A0E23A301F97FFFFFFFF8E
:1038F000B4450000FD25A0C8E9A3C14FFFFFFFFFAD
:10390000FF3F00000000008000000000FF3F0000BB
:103910000000008000000000000000000000000027
:103920000102030406070809000000000102030465
:10393000000000000000005F000000070007001406
:103940007F147F14242A7F2A1223130864623649C5
:103950005522500005030000001C224100004122B6
:103960001C0014083E081408083E080800503000E7
:103970000008080808080060600000201008040221
:103980003E5149453E00427F400042615149462137
:1039900041454B311814127F1027454545393C4AA3
:1039A00049493001710905033649494936064949F3
:1039B000291E003636000000563600000814224149
:1039C00000141414141400412214080201510906B1
:1039D000324979413E7E1111117E7F494949363E77
:1039E000414141227F4141221C7F494949417F0990
:1039F0000909013E4149497A7F0808087F00417F53
:103A000041002040413F017F081422417F40404057
:103A1000407F020C027F7F0408107F3E4141413EFF
:103A20007F090909063E4151215E7F091929464651
:103A30004949493101017F01013F4040403F1F207A
:103A400040201F3F4038403F63140814630708704C
:103A500008076151494543007F41410002040810B5
:103A6000200041417F0004020102048080808080A8
:103A7000000305000020545454787F4844443838EB
:103A800044444420384444487F3854545418087EF1
:103A90000901020C5252523E7F0804047800447D12
:103AA00040002040443D007F1028440000417F40FA
:103AB000007C041804787C080404783844444438B2
:103AC0007C14141408081414187C7C080404084896
:103AD00054545420043F4440203C4040207C1C204F
:103AE00040201C3C4030403C44281028440C50509E
:103AF000503C4464544C44000836410000007F00B0
:103B000000004136080008040810081028405870CA
:103B100088A0B84C75783A20252E326620202000E7
:103B200048656C6C6F21004248313735303A20507F
:103B30004F5745525F4F4E206661696C65640A00BD
:103B40004248313735303A205354415254204D4584
:103B500041535552454D454E54206661696C65642C
:103B60000A000000B03C000800000020180000001F
:103B7000F8010008C83C000818000020A00600005A
:103B8000180200081C00000043000000F8FFFFFFBF
:103B90000C0000000E0000000F0000002E000000CE
:103BA0001001000043000000F8FFFFFF004040400C
:103BB0004040404040404141414141404040404000
:103BC00040404040404040404040404040050202AC
:103BD000020202020202020202020202022020206B
:103BE00020202020202020020202020202029090C7
:103BF00090909090101010101010101010101010C5
:103C00001010101010101010020202020202888818
:103C10008888888808080808080808080808080824
:103C2000080808080808080802020202400000000C
:103C30000000000000000000000000000000000084
:103C40000000000000000000000000000000000074
:103C50000000000000000000000000000000000064
:103C60000000000000000000000000000000000054
:103C70000000000000000000000000000000000044
:103C80000000000000000000000000000000000034
:103C90000000000000000000000000000000000024
:103CA0000000000000000000000000000000000014
:103CB0000024F4004279650D0A0048656C6C6F0DB4
:083CC0000A00000000000000F2
:040000050800019559
:00000001FF
